:020000000D28C9
:10000800803120007F08F000042D70082000FF00D8
:1000180009008801D72CFB00FA0163297B083A3ACA
:10002800031D172818286E292000DF010314DF0D8F
:10003800FC01DC010130E2006208DA076E296E2952
:100048007B088431B52480312000E2005C08E3009D
:100058000330E335FF3E031D2D2863356207E400B6
:100068006408DC000130E2006208FC077C08013A01
:1000780003193F2840286E290230E2006208DF0099
:10008800FC01D401D5016E296E297B088431B52481
:1000980080312000E200E3015508E5005408E4003F
:1000A8000430E435E50D890B552862086407D4004F
:1000B8006308653DD5000130E2006208FC070430A2
:1000C8007C02031C682869286E290330E200620854
:1000D800DF00FC010130D536D40C890B6F28550898
:1000E8005404031D782879287B28DF016E295708D6
:1000F8005604031D802881286E295508D701D70783
:100108005408D601D6076E296E296E296E297B08F8
:100118008431B52480312000E2005D08E30003301B
:10012800E335FF3E031D942863356207E400640845
:10013800DD000130E2006208FC077C08013A03197F
:10014800A628A7286E295D08013A031DAC28AD280A
:10015800C228603084316E248031603084316E244E
:100168008031603084316E2480312000DF01FA0153
:100178000314FA0DDE010314DE0D6E290430E200CB
:100188006208DF00FC016E296E296E297B08843124
:10019800B52480312000E200E3010430E235E30DAC
:1001A800890BD2286208D8006308D9000530E2001C
:1001B8006208DF006E297B088431B5248031200075
:1001C8005807D80059080318590AD9000630E20020
:1001D8006208DF006E297B088431B5248031200055
:1001E800E200E3010C30E235E30D890BF7285808EB
:1001F8006207D8005908633DD9000730E200620859
:10020800DF006E297B088431B52480312000E200AC
:10021800E3016208E300E20158086207D8005908C0
:10022800633DD9000130E2006208FC0719305B0227
:1002380003181F2920292E295B080907203E86005C
:1002480087015808C03F5908C13F0130E2006208E1
:10025800DB072E290230F1000030F2005C08E200D2
:10026800E3016208F3006308F40083314E23803110
:100278007208803A803C031D432971087C020318E8
:10028800462947294D2904302000E2006208DF0092
:100298006E2908302000E2006208DF00FC016E29A8
:1002A8006E290130E2006208FC077C08013A031954
:1002B8005E295F296E29DF016E296E296E292000CB
:1002C8005F0884000930040203186E298431E23083
:1002D800040782007A08702908002000E901E70174
:1002E800E801DF010030E7000530E8000730680268
:1002F800FF3003196702031C822983298529AE2947
:10030800AE2968082300920192072000670823009D
:100318009101910715139517151615155530960067
:10032800AA3096009514000000009A292300951819
:100338009E299F299A29A02910302000E70700301C
:10034800E83D07306802FF3003196702031CAD2936
:10035800AE298529230095171515151395163C30D8
:100368002000E6006608E900F529DF018C1EBD299A
:10037800C02922008C16C22922008C121530843123
:10038800CB248131C7292000111ECB29CC29C729AC
:10039800CD29613084316E248131003A0319D52981
:1003A800D629E02920006108013A031DDC29DD294E
:1003B800F529E901F529F529613084316E24813167
:1003C800003A0319E829E929F52920006108013ACA
:1003D800031DEF29F029F529E901F529F529F52962
:1003E800F5292000E908031DFA29FB29B92922006B
:1003F8008C162000E9010314E90D5E2A6A30843165
:100408006E2481316A3084316E2481312000EA0102
:1004180080306A02031C112A122A142A372A372A22
:10042800613084316E248131003A03191C2A1D2A57
:100438002B2A2000610880310F208131003A0319EE
:10044800262A272A2B2A2000E9012B2A2B2A0130C9
:100458002000E6006608EA0780306A02031C352A95
:10046800362A142A372A6A3084316E24813183313E
:10047800BA23813106308431CB2481316130843113
:100488006E248131003A03194A2A4B2A5E2A200039
:100498006108013A0319512A522A5E2AE9010630F5
:1004A8008431CB2481312000DE010314DE0D5E2A65
:1004B8005E2A5E2A2000E908031D632A642A022AAC
:1004C800652A08002100A001A101A4010B138B13C8
:1004D8002000DE01E001DA01D601D701DB012300AB
:1004E8008C0121008C01F03099007A2A1A1C7D2A8F
:1004F8007E2A7A2A0B138B1323009D131D129E123A
:1005080021008C1422009D131D11103023009B0024
:100518009F119D171D169E161E151E128431EB2461
:1005280082312000EB006B08E1006108443A031DAA
:100538009E2A9F2AA12A002DA12A2100A201A301F7
:10054800202B20008C1EA92AAC2A22008C16AE2A49
:1005580022008C121C3084319C2482316130843119
:100568006E248231003A0319BA2ABB2A082B2100CB
:10057800A408031DC02AC12AC92A20006108793AA3
:100588000319C72AC82AE72AC92A21002408013AD8
:10059800031DCF2AD02AD82A20006108613A0319FE
:1005A800D62AD72AE72AD82A21002408023A031D86
:1005B800DE2ADF2A002B20006108643A031DE52AA1
:1005C800E62A002BE72A0130EB006B082100A4077C
:1005D80003302402031CF12AF22A032B3F30843112
:1005E8009C248231813171218231F5302100A000B3
:1005F8000130A100032B032B2100A401032B2000B1
:10060800610823009A000D2B01302100A00700305B
:10061800A13D013021002102F53003192002031CFD
:10062800162B172B202B5E3084319C24823123001B
:100638001D12002D202B202BFD3021002302E83035
:1006480003192202031C292B2A2BA52A2B2BA201D2
:10065800A301FD302302E83003192202031C352BC5
:10066800362B382B462B462B0130A2070030A33DF2
:10067800FD302302E83003192202031C442B452BCA
:10068800382B462B683084319C24823120008C1210
:10069800002D0D28F701F21F522B532B5C2BF1096B
:1006A800F209F10A0319F20AF7010314F70D5C2B9A
:1006B800F41F5F2B602B6A2BF309F409F30A031963
:1006C800F40A0130F5007508F7066A2BF801F901FC
:1006D800720871040319712B722BA82BF6010314ED
:1006E800F60D802B0130F135F20D890B772B013097
:1006F800F5007508F607802BF21F832B842B762BC9
:10070800862B862B0130F835F90D890B872B72085B
:100718007402031D912B71087302031C942B952BF3
:100728009B2B7108F3027208F43B78149B2B013061
:10073800F236F10C890B9C2B0130F602031DA52B18
:10074800A62B862BA82BA82B7708031DAC2BB22B26
:10075800F809F909F80A0319F90AB22B7908F2011C
:10076800F2077808F101F107B92B0800F5010A2C06
:100778007508200056072300910020005708031829
:10078800570A2300920075080907203E8600870152
:10079800403F9300413F940055309600AA309600A0
:1007A800951400000000750820005607F10057084E
:1007B8000318570AF2000F307105F3000030720574
:1007C800F4000F3073067404031DEB2BEC2B052C7F
:1007D8002300951275080907203E86008701403FCF
:1007E8009300413F940055309600AA309600951426
:1007F80000000000230015119517151515139516FF
:10080800052C0130F1007108F5070A2C20005B085F
:100818007502031C102C112CBC2B122C5B08F10048
:10082800F2017108D6077208D73DDB0108000034D1
:1008380045346E3474346534723420347934613418
:100848006434203474346F34203475347034643430
:100858006134743465342034743468346534203435
:100868006634693472346D34773461347234653483
:100878000D340A34003457346134693474346934BB
:100888006E346734203466346F34723420347834EC
:100898006D346F34643465346D3420347434723498
:1008A80061346E34733466346534723474340D34A0
:1008B8000A340034743469346D3465346F347534F3
:1008C80074340D340A3400340A34423479346534CB
:1008D8000A340034F200E830F300FD30F400742CE0
:1008E8002000911A782C792C882C0130F3020030E2
:1008F800F43BFF307406031D832CFF307306031D81
:10090800862C872C742C882C911A8B2C8C2C902C50
:1009180000309B2C9B2C9B2C23001908F10072089B
:10092800860087017108810001309B2C9B2C0800F0
:10093800F300AA2C730884310A0084318431CB2453
:1009480084310130F2007208F307AA2C730884314D
:100958000A0084310038031DB22CB32C9E2CB42C11
:100968000800F3003A3073020318BB2CBC2CC22CCD
:100978007308D03EF1007108F200C82C7308C93E14
:10098800F1007108F200C82C7208CA2C0800F100A6
:10099800CD2C2000111ED12CD22CCD2CD32C71089B
:1009A80023009A000800FC012030840000308500F4
:1009B80042308431F32484312000662A1228242806
:1009C80049288B28CA28DF28EF280629552923001B
:1009D80091019513151315141308F22C08006400DF
:0A09E80080010131890BF42C00346A
:020000040001F9
:04000E00E4FFFFDF2D
:00000001FF
